{
  "contractName": "MedChain",
  "abi": [
    {
      "constant": true,
      "inputs": [
        {
          "name": "",
          "type": "address"
        }
      ],
      "name": "patients",
      "outputs": [
        {
          "name": "patientAddress",
          "type": "address"
        },
        {
          "name": "name",
          "type": "string"
        },
        {
          "name": "records",
          "type": "string"
        }
      ],
      "payable": false,
      "stateMutability": "view",
      "type": "function",
      "signature": "0x0869cfbc"
    },
    {
      "constant": true,
      "inputs": [],
      "name": "address1",
      "outputs": [
        {
          "name": "",
          "type": "address"
        }
      ],
      "payable": false,
      "stateMutability": "view",
      "type": "function",
      "signature": "0x3a36399e"
    },
    {
      "constant": true,
      "inputs": [],
      "name": "address2",
      "outputs": [
        {
          "name": "",
          "type": "address"
        }
      ],
      "payable": false,
      "stateMutability": "view",
      "type": "function",
      "signature": "0x9eea4a3a"
    },
    {
      "inputs": [],
      "payable": false,
      "stateMutability": "nonpayable",
      "type": "constructor",
      "signature": "constructor"
    },
    {
      "constant": false,
      "inputs": [
        {
          "name": "patientAddress",
          "type": "address"
        },
        {
          "name": "providerHash",
          "type": "string"
        },
        {
          "name": "providerID",
          "type": "uint256"
        }
      ],
      "name": "addAuthorization",
      "outputs": [],
      "payable": false,
      "stateMutability": "nonpayable",
      "type": "function",
      "signature": "0xbdb92724"
    },
    {
      "constant": false,
      "inputs": [
        {
          "name": "patientAddress",
          "type": "address"
        },
        {
          "name": "providerHash",
          "type": "string"
        }
      ],
      "name": "checkAuth",
      "outputs": [
        {
          "name": "isAuth",
          "type": "bool"
        }
      ],
      "payable": false,
      "stateMutability": "nonpayable",
      "type": "function",
      "signature": "0x1fc63e03"
    }
  ],
  "bytecode": "0x608060405273dca5f28457838416a67fe0f0fabb7c1ef981926c6000806101000a81548173ffffffffffffffffffffffffffffffffffffffff021916908373ffffffffffffffffffffffffffffffffffffffff16021790555073f00f3032d37b68857250ad8faaf06bcd115e23a5600160006101000a81548173ffffffffffffffffffffffffffffffffffffffff021916908373ffffffffffffffffffffffffffffffffffffffff1602179055503480156100b957600080fd5b5061015f6000809054906101000a900473ffffffffffffffffffffffffffffffffffffffff166040805190810160405280600b81526020017f416c696365204164616d730000000000000000000000000000000000000000008152506040805190810160405280600a81526020017f66696c65312e6a736f6e0000000000000000000000000000000000000000000081525061020a640100000000026401000000009004565b610205600160009054906101000a900473ffffffffffffffffffffffffffffffffffffffff166040805190810160405280600b81526020017f426f62204261726b696e730000000000000000000000000000000000000000008152506040805190810160405280600a81526020017f66696c65322e6a736f6e0000000000000000000000000000000000000000000081525061020a640100000000026401000000009004565b6103bb565b6060604051908101604052808473ffffffffffffffffffffffffffffffffffffffff16815260200183815260200182815250600260008573ffffffffffffffffffffffffffffffffffffffff1673ffffffffffffffffffffffffffffffffffffffff16815260200190815260200160002060008201518160000160006101000a81548173ffffffffffffffffffffffffffffffffffffffff021916908373ffffffffffffffffffffffffffffffffffffffff16021790555060208201518160010190805190602001906102de929190610316565b5060408201518160020190805190602001906102fb929190610316565b50905050600360008154809291906001019190505550505050565b828054600181600116156101000203166002900490600052602060002090601f016020900481019282601f1061035757805160ff1916838001178555610385565b82800160010185558215610385579182015b82811115610384578251825591602001919060010190610369565b5b5090506103929190610396565b5090565b6103b891905b808211156103b457600081600090555060010161039c565b5090565b90565b6107f8806103ca6000396000f3fe60806040526004361061006d576000357c0100000000000000000000000000000000000000000000000000000000900463ffffffff1680630869cfbc146100725780631fc63e03146101db5780633a36399e146102db5780639eea4a3a14610332578063bdb9272414610389575b600080fd5b34801561007e57600080fd5b506100c16004803603602081101561009557600080fd5b81019080803573ffffffffffffffffffffffffffffffffffffffff16906020019092919050505061047b565b604051808473ffffffffffffffffffffffffffffffffffffffff1673ffffffffffffffffffffffffffffffffffffffff1681526020018060200180602001838103835285818151815260200191508051906020019080838360005b8381101561013757808201518184015260208101905061011c565b50505050905090810190601f1680156101645780820380516001836020036101000a031916815260200191505b50838103825284818151815260200191508051906020019080838360005b8381101561019d578082015181840152602081019050610182565b50505050905090810190601f1680156101ca5780820380516001836020036101000a031916815260200191505b509550505050505060405180910390f35b3480156101e757600080fd5b506102c1600480360360408110156101fe57600080fd5b81019080803573ffffffffffffffffffffffffffffffffffffffff1690602001909291908035906020019064010000000081111561023b57600080fd5b82018360208201111561024d57600080fd5b8035906020019184600183028401116401000000008311171561026f57600080fd5b91908080601f016020809104026020016040519081016040528093929190818152602001838380828437600081840152601f19601f8201169050808301925050505050505091929192905050506105f5565b604051808215151515815260200191505060405180910390f35b3480156102e757600080fd5b506102f06106b8565b604051808273ffffffffffffffffffffffffffffffffffffffff1673ffffffffffffffffffffffffffffffffffffffff16815260200191505060405180910390f35b34801561033e57600080fd5b506103476106dd565b604051808273ffffffffffffffffffffffffffffffffffffffff1673ffffffffffffffffffffffffffffffffffffffff16815260200191505060405180910390f35b34801561039557600080fd5b50610479600480360360608110156103ac57600080fd5b81019080803573ffffffffffffffffffffffffffffffffffffffff169060200190929190803590602001906401000000008111156103e957600080fd5b8201836020820111156103fb57600080fd5b8035906020019184600183028401116401000000008311171561041d57600080fd5b91908080601f016020809104026020016040519081016040528093929190818152602001838380828437600081840152601f19601f82011690508083019250505050505050919291929080359060200190929190505050610703565b005b60026020528060005260406000206000915090508060000160009054906101000a900473ffffffffffffffffffffffffffffffffffffffff1690806001018054600181600116156101000203166002900480601f01602080910402602001604051908101604052809291908181526020018280546001816001161561010002031660029004801561054d5780601f106105225761010080835404028352916020019161054d565b820191906000526020600020905b81548152906001019060200180831161053057829003601f168201915b505050505090806002018054600181600116156101000203166002900480601f0160208091040260200160405190810160405280929190818152602001828054600181600116156101000203166002900480156105eb5780601f106105c0576101008083540402835291602001916105eb565b820191906000526020600020905b8154815290600101906020018083116105ce57829003601f168201915b5050505050905083565b6000600260008473ffffffffffffffffffffffffffffffffffffffff1673ffffffffffffffffffffffffffffffffffffffff168152602001908152602001600020600301826040518082805190602001908083835b60208310151561066f578051825260208201915060208101905060208303925061064a565b6001836020036101000a038019825116818451168082178552505050505050905001915050908152602001604051809103902060009054906101000a900460ff16905092915050565b6000809054906101000a900473ffffffffffffffffffffffffffffffffffffffff1681565b600160009054906101000a900473ffffffffffffffffffffffffffffffffffffffff1681565b6001600260008573ffffffffffffffffffffffffffffffffffffffff1673ffffffffffffffffffffffffffffffffffffffff168152602001908152602001600020600301836040518082805190602001908083835b60208310151561077d5780518252602082019150602081019050602083039250610758565b6001836020036101000a038019825116818451168082178552505050505050905001915050908152602001604051809103902060006101000a81548160ff02191690831515021790555050505056fea165627a7a72305820b872789aa72bef7adb90c0038a316e6e41f6d0ae3e67d06f43b877116084117d0029",
  "source": "pragma solidity >=0.4.24 < 0.6.0;\r\n\r\ncontract MedChain {\r\n\r\n    //Addresses for sample patients\r\n    //need to create accounts on MetaMask for these\r\n    address public address1=0xdCA5F28457838416A67FE0f0fabb7c1eF981926c ;\r\n    address public address2=0xF00f3032d37b68857250Ad8faaF06bcD115e23a5;\r\n\r\n    struct Patient {\r\n        address patientAddress;\r\n        string name;\r\n        string records;\r\n        mapping(string => bool) authList;\r\n    }\r\n\r\n    //Patient list\r\n    mapping(address => Patient) public patients;\r\n    //address[] public patientAddresses;\r\n    uint private patientCount;\r\n\r\n    constructor () public {\r\n        addPatient(address1,\"Alice Adams\",\"file1.json\");\r\n        addPatient(address2,\"Bob Barkins\",\"file2.json\");\r\n    }\r\n\r\n    function addPatient (address _address,string memory name,string memory recs) private {\r\n        patients[_address] = Patient(_address,name,recs);\r\n\r\n        //patientAddresses[patientCount] = _address;\r\n        patientCount++;\r\n    }\r\n\r\n    function addAuthorization (address patientAddress, string memory providerHash,uint providerID) public {\r\n        patients[patientAddress].authList[providerHash] = true;\r\n    }\r\n\r\n    function checkAuth(address patientAddress, string memory providerHash) public returns(bool isAuth) {\r\n        isAuth=patients[patientAddress].authList[providerHash];\r\n    }\r\n}",
  "sourcePath": "C:/Users/david/Google Drive/CS764/MedChain/contracts/MedChain.sol",
  "compiler": {
    "name": "solc",
    "version": "0.5.0+commit.1d4f565a.Emscripten.clang"
  },
  "schemaVersion": "3.0.6",
  "updatedAt": "2019-04-26T21:45:42.617Z",
  "devdoc": {
    "methods": {}
  },
  "userdoc": {
    "methods": {}
  }
}