{
  "contractName": "MedChain",
  "abi": [
    {
      "constant": true,
      "inputs": [
        {
          "name": "",
          "type": "address"
        }
      ],
      "name": "patients",
      "outputs": [
        {
          "name": "patientAddress",
          "type": "address"
        },
        {
          "name": "name",
          "type": "string"
        },
        {
          "name": "records",
          "type": "string"
        }
      ],
      "payable": false,
      "stateMutability": "view",
      "type": "function",
      "signature": "0x0869cfbc"
    },
    {
      "constant": true,
      "inputs": [],
      "name": "address1",
      "outputs": [
        {
          "name": "",
          "type": "address"
        }
      ],
      "payable": false,
      "stateMutability": "view",
      "type": "function",
      "signature": "0x3a36399e"
    },
    {
      "constant": true,
      "inputs": [],
      "name": "address2",
      "outputs": [
        {
          "name": "",
          "type": "address"
        }
      ],
      "payable": false,
      "stateMutability": "view",
      "type": "function",
      "signature": "0x9eea4a3a"
    },
    {
      "constant": true,
      "inputs": [],
      "name": "patientCount",
      "outputs": [
        {
          "name": "",
          "type": "uint256"
        }
      ],
      "payable": false,
      "stateMutability": "view",
      "type": "function",
      "signature": "0xa0303c41"
    },
    {
      "constant": true,
      "inputs": [
        {
          "name": "",
          "type": "uint256"
        }
      ],
      "name": "patientAddresses",
      "outputs": [
        {
          "name": "",
          "type": "address"
        }
      ],
      "payable": false,
      "stateMutability": "view",
      "type": "function",
      "signature": "0xb40f1691"
    },
    {
      "inputs": [],
      "payable": false,
      "stateMutability": "nonpayable",
      "type": "constructor",
      "signature": "constructor"
    },
    {
      "constant": false,
      "inputs": [
        {
          "name": "patientAddress",
          "type": "address"
        },
        {
          "name": "providerHash",
          "type": "string"
        }
      ],
      "name": "addAuthorization",
      "outputs": [],
      "payable": false,
      "stateMutability": "nonpayable",
      "type": "function",
      "signature": "0x69cb03c3"
    },
    {
      "constant": false,
      "inputs": [
        {
          "name": "patientAddress",
          "type": "address"
        },
        {
          "name": "providerHash",
          "type": "string"
        }
      ],
      "name": "removeAuthorization",
      "outputs": [],
      "payable": false,
      "stateMutability": "nonpayable",
      "type": "function",
      "signature": "0x8cc1f5fb"
    },
    {
      "constant": false,
      "inputs": [
        {
          "name": "patientAddress",
          "type": "address"
        },
        {
          "name": "providerHash",
          "type": "string"
        }
      ],
      "name": "checkAuth",
      "outputs": [
        {
          "name": "",
          "type": "bool"
        }
      ],
      "payable": false,
      "stateMutability": "nonpayable",
      "type": "function",
      "signature": "0x1fc63e03"
    },
    {
      "constant": false,
      "inputs": [
        {
          "name": "patientAddress",
          "type": "address"
        }
      ],
      "name": "getPatientRecordFile",
      "outputs": [
        {
          "name": "retString",
          "type": "string"
        }
      ],
      "payable": false,
      "stateMutability": "nonpayable",
      "type": "function",
      "signature": "0x99d0beba"
    }
  ],
  "bytecode": "0x608060405273dca5f28457838416a67fe0f0fabb7c1ef981926c6000806101000a81548173ffffffffffffffffffffffffffffffffffffffff021916908373ffffffffffffffffffffffffffffffffffffffff16021790555073f00f3032d37b68857250ad8faaf06bcd115e23a5600160006101000a81548173ffffffffffffffffffffffffffffffffffffffff021916908373ffffffffffffffffffffffffffffffffffffffff1602179055506000600355348015620000bf57600080fd5b50620001676000809054906101000a900473ffffffffffffffffffffffffffffffffffffffff166040805190810160405280600b81526020017f416c696365204164616d730000000000000000000000000000000000000000008152506040805190810160405280601181526020017f70617469656e74416c6963652e6a736f6e00000000000000000000000000000081525062000215640100000000026401000000009004565b6200020f600160009054906101000a900473ffffffffffffffffffffffffffffffffffffffff166040805190810160405280600b81526020017f426f62204261726b696e730000000000000000000000000000000000000000008152506040805190810160405280600f81526020017f70617469656e74426f622e6a736f6e000000000000000000000000000000000081525062000215640100000000026401000000009004565b6200043a565b6060604051908101604052808473ffffffffffffffffffffffffffffffffffffffff16815260200183815260200182815250600260008573ffffffffffffffffffffffffffffffffffffffff1673ffffffffffffffffffffffffffffffffffffffff16815260200190815260200160002060008201518160000160006101000a81548173ffffffffffffffffffffffffffffffffffffffff021916908373ffffffffffffffffffffffffffffffffffffffff1602179055506020820151816001019080519060200190620002eb9291906200038b565b5060408201518160020190805190602001906200030a9291906200038b565b5090505060048390806001815401808255809150509060018203906000526020600020016000909192909190916101000a81548173ffffffffffffffffffffffffffffffffffffffff021916908373ffffffffffffffffffffffffffffffffffffffff16021790555050600360008154809291906001019190505550505050565b828054600181600116156101000203166002900490600052602060002090601f016020900481019282601f10620003ce57805160ff1916838001178555620003ff565b82800160010185558215620003ff579182015b82811115620003fe578251825591602001919060010190620003e1565b5b5090506200040e919062000412565b5090565b6200043791905b808211156200043357600081600090555060010162000419565b5090565b90565b610db3806200044a6000396000f3fe608060405260043610610099576000357c0100000000000000000000000000000000000000000000000000000000900463ffffffff1680630869cfbc1461009e5780631fc63e03146102075780633a36399e1461030757806369cb03c31461035e5780638cc1f5fb1461044657806399d0beba1461052e5780639eea4a3a146105f8578063a0303c411461064f578063b40f16911461067a575b600080fd5b3480156100aa57600080fd5b506100ed600480360360208110156100c157600080fd5b81019080803573ffffffffffffffffffffffffffffffffffffffff1690602001909291905050506106f5565b604051808473ffffffffffffffffffffffffffffffffffffffff1673ffffffffffffffffffffffffffffffffffffffff1681526020018060200180602001838103835285818151815260200191508051906020019080838360005b83811015610163578082015181840152602081019050610148565b50505050905090810190601f1680156101905780820380516001836020036101000a031916815260200191505b50838103825284818151815260200191508051906020019080838360005b838110156101c95780820151818401526020810190506101ae565b50505050905090810190601f1680156101f65780820380516001836020036101000a031916815260200191505b509550505050505060405180910390f35b34801561021357600080fd5b506102ed6004803603604081101561022a57600080fd5b81019080803573ffffffffffffffffffffffffffffffffffffffff1690602001909291908035906020019064010000000081111561026757600080fd5b82018360208201111561027957600080fd5b8035906020019184600183028401116401000000008311171561029b57600080fd5b91908080601f016020809104026020016040519081016040528093929190818152602001838380828437600081840152601f19601f82011690508083019250505050505050919291929050505061086f565b604051808215151515815260200191505060405180910390f35b34801561031357600080fd5b5061031c610932565b604051808273ffffffffffffffffffffffffffffffffffffffff1673ffffffffffffffffffffffffffffffffffffffff16815260200191505060405180910390f35b34801561036a57600080fd5b506104446004803603604081101561038157600080fd5b81019080803573ffffffffffffffffffffffffffffffffffffffff169060200190929190803590602001906401000000008111156103be57600080fd5b8201836020820111156103d057600080fd5b803590602001918460018302840111640100000000831117156103f257600080fd5b91908080601f016020809104026020016040519081016040528093929190818152602001838380828437600081840152601f19601f820116905080830192505050505050509192919290505050610957565b005b34801561045257600080fd5b5061052c6004803603604081101561046957600080fd5b81019080803573ffffffffffffffffffffffffffffffffffffffff169060200190929190803590602001906401000000008111156104a657600080fd5b8201836020820111156104b857600080fd5b803590602001918460018302840111640100000000831117156104da57600080fd5b91908080601f016020809104026020016040519081016040528093929190818152602001838380828437600081840152601f19601f820116905080830192505050505050509192919290505050610a1f565b005b34801561053a57600080fd5b5061057d6004803603602081101561055157600080fd5b81019080803573ffffffffffffffffffffffffffffffffffffffff169060200190929190505050610ae7565b6040518080602001828103825283818151815260200191508051906020019080838360005b838110156105bd5780820151818401526020810190506105a2565b50505050905090810190601f1680156105ea5780820380516001836020036101000a031916815260200191505b509250505060405180910390f35b34801561060457600080fd5b5061060d610ce5565b604051808273ffffffffffffffffffffffffffffffffffffffff1673ffffffffffffffffffffffffffffffffffffffff16815260200191505060405180910390f35b34801561065b57600080fd5b50610664610d0b565b6040518082815260200191505060405180910390f35b34801561068657600080fd5b506106b36004803603602081101561069d57600080fd5b8101908080359060200190929190505050610d11565b604051808273ffffffffffffffffffffffffffffffffffffffff1673ffffffffffffffffffffffffffffffffffffffff16815260200191505060405180910390f35b60026020528060005260406000206000915090508060000160009054906101000a900473ffffffffffffffffffffffffffffffffffffffff1690806001018054600181600116156101000203166002900480601f0160208091040260200160405190810160405280929190818152602001828054600181600116156101000203166002900480156107c75780601f1061079c576101008083540402835291602001916107c7565b820191906000526020600020905b8154815290600101906020018083116107aa57829003601f168201915b505050505090806002018054600181600116156101000203166002900480601f0160208091040260200160405190810160405280929190818152602001828054600181600116156101000203166002900480156108655780601f1061083a57610100808354040283529160200191610865565b820191906000526020600020905b81548152906001019060200180831161084857829003601f168201915b5050505050905083565b6000600260008473ffffffffffffffffffffffffffffffffffffffff1673ffffffffffffffffffffffffffffffffffffffff168152602001908152602001600020600301826040518082805190602001908083835b6020831015156108e957805182526020820191506020810190506020830392506108c4565b6001836020036101000a038019825116818451168082178552505050505050905001915050908152602001604051809103902060009054906101000a900460ff16905092915050565b6000809054906101000a900473ffffffffffffffffffffffffffffffffffffffff1681565b6001600260008473ffffffffffffffffffffffffffffffffffffffff1673ffffffffffffffffffffffffffffffffffffffff168152602001908152602001600020600301826040518082805190602001908083835b6020831015156109d157805182526020820191506020810190506020830392506109ac565b6001836020036101000a038019825116818451168082178552505050505050905001915050908152602001604051809103902060006101000a81548160ff0219169083151502179055505050565b6000600260008473ffffffffffffffffffffffffffffffffffffffff1673ffffffffffffffffffffffffffffffffffffffff168152602001908152602001600020600301826040518082805190602001908083835b602083101515610a995780518252602082019150602081019050602083039250610a74565b6001836020036101000a038019825116818451168082178552505050505050905001915050908152602001604051809103902060006101000a81548160ff0219169083151502179055505050565b6060610af1610d4f565b600260008473ffffffffffffffffffffffffffffffffffffffff1673ffffffffffffffffffffffffffffffffffffffff168152602001908152602001600020606060405190810160405290816000820160009054906101000a900473ffffffffffffffffffffffffffffffffffffffff1673ffffffffffffffffffffffffffffffffffffffff1673ffffffffffffffffffffffffffffffffffffffff168152602001600182018054600181600116156101000203166002900480601f016020809104026020016040519081016040528092919081815260200182805460018160011615610100020316600290048015610c2b5780601f10610c0057610100808354040283529160200191610c2b565b820191906000526020600020905b815481529060010190602001808311610c0e57829003601f168201915b50505050508152602001600282018054600181600116156101000203166002900480601f016020809104026020016040519081016040528092919081815260200182805460018160011615610100020316600290048015610ccd5780601f10610ca257610100808354040283529160200191610ccd565b820191906000526020600020905b815481529060010190602001808311610cb057829003601f168201915b50505050508152505090508060400151915050919050565b600160009054906101000a900473ffffffffffffffffffffffffffffffffffffffff1681565b60035481565b600481815481101515610d2057fe5b906000526020600020016000915054906101000a900473ffffffffffffffffffffffffffffffffffffffff1681565b606060405190810160405280600073ffffffffffffffffffffffffffffffffffffffff1681526020016060815260200160608152509056fea165627a7a72305820334fc01971039fda8605cfee14ce05ef8c861eb9e04b0a53e9295996395e3b730029",
  "source": "pragma solidity >=0.4.24 < 0.6.0;\r\n\r\ncontract MedChain {\r\n\r\n    //Addresses for sample patients\r\n    //need to create accounts on MetaMask for these\r\n    address public address1=0xdCA5F28457838416A67FE0f0fabb7c1eF981926c;\r\n    address public address2=0xF00f3032d37b68857250Ad8faaF06bcD115e23a5;\r\n\r\n    struct Patient {\r\n        address patientAddress;\r\n        string name;\r\n        string records;\r\n        mapping(string => bool) authList;\r\n    }\r\n\r\n    //Patient list\r\n    mapping(address => Patient) public patients;\r\n    uint public patientCount=0;\r\n    address[] public patientAddresses;\r\n\r\n    constructor () public {\r\n        addPatient(address1,\"Alice Adams\",\"patientAlice.json\");\r\n        addPatient(address2,\"Bob Barkins\",\"patientBob.json\");\r\n    }\r\n\r\n    function addPatient (address _address,string memory name,string memory recs) private {\r\n        patients[_address] = Patient(_address,name,recs);\r\n        patientAddresses.push(_address);\r\n        patientCount++;\r\n    }\r\n\r\n    function addAuthorization (address patientAddress, string memory providerHash) public {\r\n        patients[patientAddress].authList[providerHash] = true;\r\n    }\r\n\r\n    function removeAuthorization (address patientAddress, string memory providerHash) public {\r\n        patients[patientAddress].authList[providerHash] = false;\r\n    }\r\n\r\n    function checkAuth(address patientAddress, string memory providerHash) public returns(bool) {\r\n        return patients[patientAddress].authList[providerHash];\r\n    }\r\n\r\n    function getPatientRecordFile(address patientAddress) public returns(string memory retString)    {\r\n        Patient memory ret = patients[patientAddress];\r\n        return ret.records;\r\n    }\r\n}",
  "sourcePath": "C:/Users/david/Google Drive/CS764/BlockChain/MedID/contracts/MedChain.sol",
  "compiler": {
    "name": "solc",
    "version": "0.5.0+commit.1d4f565a.Emscripten.clang"
  },
  "schemaVersion": "3.0.6",
  "updatedAt": "2019-04-28T22:29:23.154Z",
  "devdoc": {
    "methods": {}
  },
  "userdoc": {
    "methods": {}
  }
}